:100000000C9461000C947E000C947E000C947E0095
:100010000C947E000C947E000C947E000C947E0068
:100020000C947E000C947E000C947E000C947E0058
:100030000C947E000C947E000C947E000C947E0048
:100040000C9426020C947E000C947E000C947E008E
:100050000C947E000C947E000C947E000C947E0028
:100060000C947E000C947E0000000000230026000B
:10007000290000000000240027002A0000000000E2
:10008000250028002B0004040404040404040202D4
:100090000202020203030303030301020408102007
:1000A0004080010204081020010204081020000012
:1000B0000008000201000003040700000000000027
:1000C000000011241FBECFEFD8E0DEBFCDBF11E08E
:1000D000A0E0B1E0ECE6FAE002C005900D92A0309D
:1000E000B107D9F721E0A0E0B1E001C01D92AB302B
:1000F000B207E1F70E9470020C9434050C940000E2
:10010000833081F028F4813099F08230A1F0089595
:100110008730A9F08830B9F08430D1F48091800024
:100120008F7D03C0809180008F7780938000089539
:1001300084B58F7702C084B58F7D84BD089580918A
:10014000B0008F7703C08091B0008F7D8093B000A6
:1001500008951F93CF93DF93282F30E0F901E255E4
:10016000FF4F8491F901E656FF4FD491F901EA5708
:10017000FF4FC491CC23C1F0162F81110E94800043
:10018000EC2FF0E0EE0FFF1FE458FF4FA591B49164
:100190009FB7F894111104C08C91D095D82302C058
:1001A000EC91DE2BDC939FBFDF91CF911F910895DF
:1001B000CF93DF9390E0FC01E656FF4F2491FC01C2
:1001C000EA57FF4F8491882361F190E0880F991FCF
:1001D000FC01EE58FF4FC591D491FC01E458FF4F4C
:1001E000A591B491611109C09FB7F89488812095B9
:1001F00082238883EC912E230BC0623061F49FB779
:10020000F8948881322F309583238883EC912E2BAC
:100210002C939FBF06C08FB7F894E8812E2B2883BC
:100220008FBFDF91CF9108951F93CF93DF93182F46
:10023000EB0161E00E94D800209711F460E004C057
:10024000CF3FD10539F461E0812FDF91CF911F912C
:100250000C94A900E12FF0E0E255FF4FE491E33068
:10026000F9F048F4E130B9F0E230A1F584B58062EC
:1002700084BDC8BD34C0E730E9F0E83019F1E4309E
:1002800049F580918000806280938000D0938B003C
:10029000C0938A0024C084B5806884BDC7BD1FC0D8
:1002A00080918000806880938000D0938900C09303
:1002B000880015C08091B00080688093B000C09322
:1002C000B3000DC08091B00080628093B000C093F5
:1002D000B40005C0C038D1050CF0B5CFAFCFDF9169
:1002E000CF911F9108953FB7F894809107019091A5
:1002F0000801A0910901B0910A0126B5A89B05C08B
:100300002F3F19F00196A11DB11D3FBFBA2FA92F94
:10031000982F8827820F911DA11DB11DBC01CD0111
:1003200042E0660F771F881F991F4A95D1F70895FD
:1003300082E480937C0080917A00806480937A00CC
:1003400080917A0086FDFCCF6091780080917900E1
:1003500070E0782B072E000C880B990B0E943B0451
:1003600020E030E040EA5BE30E94C70420E030E098
:1003700040E05FE30E94960320E030E048EC52E466
:100380000E94C7040E940304CB010895CF93DF931A
:10039000893291055CF061E082E00E94A90060E092
:1003A00083E00E94A9006FEF70E04BC0843191059B
:1003B00099F461E082E00E94A90060E083E00E947D
:1003C000A90060E870E089E00E94140160E080E12B
:1003D000DF91CF910C94D800449754F460E082E010
:1003E0000E94A90060E083E0DF91CF910C94A90006
:1003F0000E949801EC0161E082E00E94A90060E0A7
:1004000083E00E94A900CE01DD0FAA0BBB0B9C016B
:10041000AD012551310941095109AEE7B0E00E9413
:100420005A0323E130E040E050E00E943B03CA0160
:10043000B90160587F4F8F4F9F4F0E943B040E942D
:10044000030489E0DF91CF910C9414011F920F9265
:100450000FB60F9211242F933F938F939F93AF93D7
:10046000BF938091030190910401A0910501B09187
:1004700006013091020123E0230F2D3720F401966D
:10048000A11DB11D05C026E8230F0296A11DB11DB7
:10049000209302018093030190930401A09305012E
:1004A000B09306018091070190910801A091090184
:1004B000B0910A010196A11DB11D8093070190938F
:1004C0000801A0930901B0930A01BF91AF919F91D8
:1004D0008F913F912F910F900FBE0F901F90189505
:1004E000789484B5826084BD84B5816084BD85B50F
:1004F000826085BD85B5816085BD80916E0081601B
:1005000080936E00109281008091810082608093C0
:1005100081008091810081608093810080918000C2
:100520008160809380008091B10084608093B100ED
:100530008091B00081608093B00080917A008460E7
:1005400080937A0080917A00826080937A00809113
:100550007A00816080937A0080917A00806880932D
:100560007A001092C10061E089E00E94D80061E049
:1005700082E00E94D80061E083E00E94D80061E040
:100580008DE00E94D80060E085E00E94D80060E025
:1005900082E00E94A90060E083E00E94A90023EBB2
:1005A000822E20E0922ECFE9D0E00BE810E030E080
:1005B000A32E30E0B32EF4018491FE01E490F80103
:1005C000F490FF20A1F081110E948000EF2DF0E057
:1005D000EE0FFF1FE859FF4FA591B4918C918E212A
:1005E00021E090E009F420E0E22EF92E02C0E12C97
:1005F000F12CF0920101E09200010E9498010E940A
:10060000C601EA94EF2811F461E001C060E08DE0DA
:100610000E94A9000E9473016B017C018AE0482EB0
:10062000512C612C712C0E947301DC01CB018C19BF
:100630009D09AE09BF09883E9340A105B10598F315
:1006400021E0421A51086108710888EEC80E83E063
:10065000D81EE11CF11C411451046104710419F706
:100660000E9498010E94C601A114B10409F4A3CF0D
:100670000E940000A0CF052E97FB1EF400940E945C
:10068000520357FD07D00E94650307FC03D04EF4C8
:100690000C94520350954095309521953F4F4F4F04
:1006A0005F4F089590958095709561957F4F8F4F1E
:1006B0009F4F08950E948703A59F900DB49F900DB2
:1006C000A49F800D911D11240895A1E21A2EAA1B4A
:1006D000BB1BFD010DC0AA1FBB1FEE1FFF1FA217F2
:1006E000B307E407F50720F0A21BB30BE40BF50BEF
:1006F000661F771F881F991F1A9469F76095709578
:10070000809590959B01AC01BD01CF010895A29FFA
:10071000B001B39FC001A39F700D811D1124911DD5
:10072000B29F700D811D1124911D08955058BB2753
:10073000AA270E94AE030C948D040E947F0438F017
:100740000E94860420F039F49F3F19F426F40C949B
:100750007C040EF4E095E7FB0C947604E92F0E94EC
:100760009E0458F3BA17620773078407950720F0B1
:1007700079F4A6F50C94C0040EF4E0950B2EBA2F74
:10078000A02D0B01B90190010C01CA01A001112497
:10079000FF27591B99F0593F50F4503E68F11A1643
:1007A000F040A22F232F342F4427585FF3CF4695D4
:1007B00037952795A795F0405395C9F77EF41F16F6
:1007C000BA0B620B730B840BBAF09150A1F0FF0FC0
:1007D000BB1F661F771F881FC2F70EC0BA0F621FAC
:1007E000731F841F48F4879577956795B795F7959C
:1007F0009E3F08F0B0CF9395880F08F09927EE0F31
:100800009795879508950E940A046894B1110C94F5
:10081000C10408950E94A60488F09F5798F0B92F4C
:100820009927B751B0F0E1F0660F771F881F991F25
:100830001AF0BA95C9F714C0B13091F00E94C00403
:10084000B1E008950C94C004672F782F8827B85F13
:1008500039F0B93FCCF3869577956795B395D9F77D
:100860003EF490958095709561957F4F8F4F9F4F87
:100870000895E89409C097FB3EF490958095709593
:1008800061957F4F8F4F9F4F9923A9F0F92F96E9DC
:10089000BB279395F695879577956795B795F11151
:1008A000F8CFFAF4BB0F11F460FF1BC06F5F7F4FEE
:1008B0008F4F9F4F16C0882311F096E911C0772300
:1008C00021F09EE8872F762F05C0662371F096E809
:1008D000862F70E060E02AF09A95660F771F881FD8
:1008E000DAF7880F9695879597F9089597F99F6796
:1008F00080E870E060E008959FEF80EC08950024A8
:100900000A941616170618060906089500240A9474
:1009100012161306140605060895092E0394000CFA
:1009200011F4882352F0BB0F40F4BF2B11F460FF89
:1009300004C06F5F7F4F8F4F9F4F089557FD9058B2
:10094000440F551F59F05F3F71F04795880F97FB93
:10095000991F61F09F3F79F087950895121613064D
:100960001406551FF2CF4695F1DF08C0161617067C
:100970001806991FF1CF86957105610508940895B1
:10098000E894BB2766277727CB0197F908950E9443
:10099000DA040C948D040E947F0438F00E948604CF
:1009A00020F0952311F00C9476040C947C0411240F
:1009B0000C94C1040E949E0470F3959FC1F3950F9F
:1009C00050E0551F629FF001729FBB27F00DB11DD3
:1009D000639FAA27F00DB11DAA1F649F6627B00D63
:1009E000A11D661F829F2227B00DA11D621F739F4C
:1009F000B00DA11D621F839FA00D611D221F749F5A
:100A00003327A00D611D231F849F600D211D822FA0
:100A1000762F6A2F11249F5750409AF0F1F08823C7
:100A20004AF0EE0FFF1FBB1F661F771F881F9150F4
:100A30005040A9F79E3F510580F00C9476040C9429
:100A4000C1045F3FE4F3983ED4F3869577956795AC
:100A5000B795F795E7959F5FC1F7FE2B880F911D1E
:0C0A60009695879597F90895F894FFCFBC
:00000001FF
